:100000000C9464000C948C000C948C000C948C0068
:100010000C948C000C948C000C948C000C948C0030
:100020000C948C000C948C000C948C000C942B0180
:100030000C948C000C948C000C948C000C948C0010
:100040000C945C060C948C000C9456080C9492084A
:100050000C948C000C948C000C948C000C948C00F0
:100060000C946A040C948C0000000007000201004C
:100070000003040600000000000000000102040864
:100080001020408001020408102001020408102002
:10009000040404040404040402020202020203032E
:1000A00003030303000000002300260029000000D2
:1000B0000000250028002B0000000000240027007D
:1000C0002A00230111044D0911241FBECFEFD8E0EF
:1000D000DEBFCDBF11E0A0E0B1E0E4EDF4E102C08D
:1000E00005900D92A832B107D9F712E0A8E2B1E06D
:1000F00001C01D92AA3CB107E1F710E0C8ECD0E0C6
:1001000004C02297FE010E94580AC23CD107C9F7D9
:100110000E949D090C94680A0C9400000895809137
:100120000201813089F487E591E00E941D03892B4B
:1001300041F087E591E00E94260390932901809386
:1001400028011092020111C087E591E00E941D0371
:10015000892B41F087E591E00E94260390930101ED
:100160008093000181E08093020181E080932A0165
:10017000089568EC70E0809105010E94310769E6FE
:1001800070E087E591E00E94050440E052EC61E0F8
:1001900070E083E292E00E94CD0869E070E08EE2B8
:1001A00091E00E9486026BE070E08BE291E00E9499
:1001B000860261E0809103010E94C4056EE870E050
:1001C00087E591E00E940C046FE870E087E591E01C
:1001D0000E94070464EF71E080E090E00C94D00688
:1001E00080912A01813071F5809128019091290137
:1001F0008130910539F460910001709101018EE226
:1002000091E009C08230910549F46091000170913C
:1002100001018BE291E00E94BF0212C0039781F4BA
:10022000809103010E94330661E0892B09F060E0B0
:10023000809103010E94FC0510922901109228016F
:1002400010922A0108958EE291E00E94E9018BE26A
:1002500091E00C94E9011F920F920FB60F921124B6
:100260002F933F934F935F936F937F938F939F93BE
:10027000AF93BF93EF93FF938091320187FF05C047
:1002800010928500109284001AC020913201332709
:1002900027FD30958091310190E0281739077CF4D3
:1002A00080913201992787FD9095FC01EE0FFF1F89
:1002B000E80FF91FED5CFE4F808186FD37C080910D
:1002C00032018F5F8093320120913201332727FD65
:1002D00030958091310190E028173907CCF5809155
:1002E00032018C30F4F134C080913201992787FDBE
:1002F0009095FC01EE0FFF1FE80FF91FED5CFE4F1C
:10030000808161E08F730E94FC0552C080E49CE90B
:1003100005C0809184009091850004969093890097
:10032000809388008FEF8093320142C08091320128
:10033000992787FD9095FC01EE0FFF1FE80FF91F2D
:10034000ED5CFE4F808160E08F730E94FC05B7CFAB
:100350008091840090918500049680349C49B0F28D
:10036000D8CF80918400909185002091320133276D
:1003700027FD3095F901EE0FFF1FE20FF31FED5C33
:10038000FE4F21813281820F931F909389008093C9
:10039000880080913201992787FD9095FC01EE0F2E
:1003A000FF1FE80FF91FED5CFE4F808186FD9CCF9B
:1003B000FF91EF91BF91AF919F918F917F916F913D
:1003C0005F914F913F912F910F900FBE0F901F9013
:1003D0001895209131012C30A0F4FC012083822F4C
:1003E0008F5F80933101822F90E0FC01EE0FFF1FA1
:1003F000E80FF91FED5CFE4F88EB9BE09283818351
:1004000008952FEFFC0120830895DF92EF92FF9271
:100410000F931F93CF93DF93EC01D62E7A018901BE
:1004200088818C3008F065C061E08D2D0E94C40584
:100430008881A82FB0E0FD01EE0FFF1FEA0FFB1F20
:10044000ED5CFE4F2D2D2F739081907C922B90832D
:1004500060E272E06E197F0977FF02C06D5F7F4F27
:100460007595679575956795698340E659E0401BDA
:10047000510B57FF02C04D5F5F4F559547955595FE
:1004800047954A836CE00E94010A9CE0899FB00175
:10049000112420E030E0A901460F571FFA01EE0FAA
:1004A000FF1FE40FF51FED5CFE4F908196FD15C018
:1004B0002F5F3F4F2C30310571F71DC01092800027
:1004C00082E0809381001092850010928400B19A9E
:1004D00080916F00826080936F00888190E0FC01C2
:1004E000EE0FFF1FE80FF91FED5CFE4F8081806467
:1004F0008083888103C0882309F3EFCFDF91CF91F8
:100500001F910F91FF90EF90DF90089520E639E062
:1005100040E252E00C940502FC0180818C3070F5C1
:10052000918128E830E0291B310997FD3395220F8E
:10053000331F220F331F621773077CF0928128E567
:1005400032E0291B310997FD3395220F331F220F0B
:10055000331F621773070CF49B014FB7F89490E0B8
:10056000FC01EE0FFF1FE80FF91FED5CFE4F22505C
:100570003109220F331F328321834FBF0895AF9279
:10058000BF92CF92DF92EF92FF920F931F93CF9380
:10059000DF93EC01603282E078070CF041C077FD18
:1005A00004C0653B710524F405C060E070E002C042
:1005B00064EB70E0298188E890E0821B910927FDB7
:1005C0009395880F991F880F991F5C01CC24B7FC65
:1005D000C094DC2C882777FD8095982F2A8148E5E8
:1005E00052E0421B510927FD5395440F551F440FFC
:1005F000551F8A01222717FD2095322F3F932F93F5
:100600001F930F9314EBE12EF12C00E010E020E09B
:1006100030E0A9010E94AA090F900F900F900F904F
:10062000CE01DF91CF911F910F91FF90EF90DF905E
:10063000CF90BF90AF900C948C0220918A0130E053
:1006400080918B01281B3109C901089580918B018C
:1006500090918A01891750F4E82FF0E0E457FE4F9B
:10066000208130E08F5F80938B0102C02FEF3FEF3E
:10067000C9010895E0918B0180918A01E81730F457
:10068000F0E0E457FE4F208130E002C02FEF3FEF53
:10069000C90108950895E0916301F09164013097D4
:1006A000E1F030918B0120918A013217B0F040E0E7
:1006B00009C0DC01A20FB31F5C91D901A457BE4F42
:1006C0005C934F5F242F30E02617370794F3109286
:1006D0008B0160938A01CB0109940895E091650133
:1006E000F0916601309729F010926901109268012B
:1006F00009940895CF92DF92EF92FF920F931F9388
:10070000CF93DF937C01CB018A01209167012223E3
:1007100091F0EB016B01C40ED51E09C06991D701A0
:10072000ED91FC910190F081E02DC7010995CC1568
:10073000DD05A1F703C0642F0E943704C801DF91D3
:10074000CF911F910F91FF90EF90DF90CF90089580
:10075000CF93DF931F92CDB7DEB7698320916701F6
:100760002223D1F020916801203240F021E030E0D6
:10077000FC013383228320E030E015C080916901C1
:10078000E82FF0E0E659FE4F998190838F5F8093C8
:1007900069018093680105C061E0CE0101960E9465
:1007A000370421E030E0C9010F90DF91CF91089527
:1007B000FC011382128248EE53E060E070E0448353
:1007C0005583668377838BE091E0918380830895DE
:1007D00010928B0110928A011092690110926801A7
:1007E0000C941504CF93DF93EC01862F0E94330401
:1007F0008EE693E00E9455048BE493E00E9450043F
:10080000CE01DF91CF910C94E8030C94F203709326
:1008100064016093630108957093660160936501BC
:10082000089587E591E00C94D8031092B50181E01A
:100830008093B3011092B20161E082E10E94FC0555
:1008400061E083E10E94FC05E9EBF0E080818E7FAE
:10085000808380818D7F808388E48093B80085E4E5
:100860008093BC000895880F8093BA000895613288
:1008700098F42091B501243089F46093AE01FC0115
:1008800086ED91E0DC0102C021912D932A2F281BD7
:100890002617D0F380E0089581E0089582E008955E
:1008A0009093F7018093F60108959093F901809356
:1008B000F801089585ED8093BC008091BC0084FD13
:1008C000FCCF1092B501089585EC8093BC00109286
:1008D000B50108951F920F920FB60F9211242F9316
:1008E0003F934F935F936F937F938F939F93AF93B8
:1008F000BF93EF93FF938091B900887F803609F40E
:100900009FC058F5883209F45BC090F4803109F437
:1009100052C038F4882309F4F8C0883009F0F9C0CF
:100920004AC0883109F44CC0803209F0F2C05CC082
:10093000803409F46BC038F4803309F455C088332F
:1009400009F0E7C054C0803509F454C0883509F473
:1009500062C0883409F0DDC0DAC0883909F4CBC040
:10096000A8F4883709F46CC038F4883609F468C0F4
:10097000803709F0CEC064C0883809F4BCC0803923
:1009800009F464C0803809F0C4C060C0803B09F439
:100990008AC038F4803A09F46BC0883A09F0B9C0CB
:1009A00082C0803C09F4ABC0883C09F4A8C0883BF5
:1009B00009F0AFC08DC08091B4018093BB0012C01C
:1009C0009091B1018091B001981788F58091B101A3
:1009D000E82FF0E0EA54FE4F90819093BB008F5FC8
:1009E0008093B10185EC88C08093AC0190C0809366
:1009F000AC0156C08091B1019091BB00E82FF0E0AE
:100A0000EA54FE4F90838F5F8093B1019091B101C2
:100A10008091B0016DC08091B1019091BB00E82F31
:100A2000F0E0EA54FE4F90838F5F8093B101809194
:100A3000B30181116CC081E08093B20184EA60C08F
:100A400083E08093B5011092AD01CCCF8091AD01D0
:100A5000803208F050C08091AD019091BB00E82F2A
:100A6000F0E0E650FE4F90838F5F8093AD01BACFE8
:100A70008091AD01803230F4E091AD01F0E0E650BC
:100A8000FE4F10820E945A046091AD01E091F60180
:100A9000F091F70170E08AEF91E009951092AD01B5
:100AA0000E94640436C084E08093B5011092AF01C7
:100AB0001092AE01E091F801F091F9010995809151
:100AC000AE01811105C081E08093AE011092D60184
:100AD0008091AF01E82FF0E0EA52FE4F90819093B1
:100AE000BB008F5F8093AF019091AF018091AE0109
:100AF000981708F477CF85E88093BC000AC085EC8E
:100B00008093BC001092B50104C01092AC010E9409
:100B10005A04FF91EF91BF91AF919F918F917F9177
:100B20006F915F914F913F912F910F900FBE0F905A
:100B30001F901895833069F028F48130A1F082303D
:100B400011F514C08630B1F08730C1F08430D9F48B
:100B500004C0809180008F7703C0809180008F7DDA
:100B600080938000089584B58F7702C084B58F7D0F
:100B700084BD08958091B0008F7703C08091B0004C
:100B80008F7D8093B0000895CF93DF9390E0FC01B8
:100B9000E458FF4F4491FC01E057FF4F84918823B4
:100BA00041F190E0880F991FFC01E854FF4F259117
:100BB0003491D90182559F4FFC0185919491C82FA2
:100BC000D92F9FB7F8948C91611106C0409584236A
:100BD0008C938881842308C0623041F4242F2095AF
:100BE00082238C938881842B888302C0842B8C93EE
:100BF0009FBFDF91CF9108950F931F93CF93DF9302
:100C00001F92CDB7DEB7282F30E0F901E859FF4F2A
:100C10008491F901E458FF4F1491F901E057FF4F17
:100C200004910023D1F0882321F069830E949A0562
:100C30006981E02FF0E0EE0FFF1FE255FF4F859135
:100C40009491DC019FB7F8948C91611103C01095C9
:100C5000812301C0812B8C939FBF0F90DF91CF9197
:100C60001F910F910895CF93DF93282F30E0F90162
:100C7000E859FF4F8491F901E458FF4FD491F901ED
:100C8000E057FF4FC491CC2389F081110E949A054F
:100C9000EC2FF0E0EE0FFF1FEC55FF4F8591949184
:100CA000DC018C918D2321E030E011F420E030E074
:100CB000C901DF91CF9108951F920F920FB60F9245
:100CC00011242F933F938F939F93AF93BF93809162
:100CD0001A0290911B02A0911C02B0911D0230914A
:100CE0002202232F2D5F2D3720F40196A11DB11D67
:100CF00005C0232F2A570296A11DB11D2093220261
:100D000080931A0290931B02A0931C02B0931D02C1
:100D100080911E0290911F02A0912002B0912102A9
:100D20000196A11DB11D80931E0290931F02A093F6
:100D30002002B0932102BF91AF919F918F913F917B
:100D40002F910F900FBE0F901F9018950F931F9328
:100D50009FB7F89400911E0210911F02209120026B
:100D60003091210286B5A89B06C08F3F21F00F5F0E
:100D70001F4F2F4F3F4F9FBF322F212F102F002784
:100D8000080F111D211D311D42E0000F111F221FF0
:100D9000331F4A95D1F7B801C9011F910F910895EA
:100DA000CF92DF92EF92FF92CF93DF936B017C01A2
:100DB0000E94A606EB010EC00E94A6066C1B7D0BCE
:100DC000683E734038F081E0C81AD108E108F108A4
:100DD000C851DC4FC114D104E104F10469F7DF917B
:100DE000CF91FF90EF90DF90CF900895789484B5E5
:100DF000826084BD84B5816084BD85B5826085BD17
:100E000085B5816085BDEEE6F0E0808181608083FC
:100E1000E1E8F0E0108280818260808380818160DF
:100E20008083E0E8F0E0808181608083E1EBF0E0A6
:100E3000808184608083E0EBF0E08081816080834A
:100E4000EAE7F0E080818460808380818260808333
:100E50008081816080838081806880831092C1005E
:100E600008951F93CF93DF93182FEB0161E00E9449
:100E7000C405209711F460E004C0CF3FD10539F4D8
:100E800061E0812FDF91CF911F910C94FC05E12F40
:100E9000F0E0E859FF4FE491E330B9F028F4E13095
:100EA00051F0E230B1F50CC0E63019F1E73049F10C
:100EB000E43079F514C084B5806884BDC7BD2EC008
:100EC00084B5806284BDC8BD29C0809180008068DF
:100ED00080938000D0938900C09388001FC08091C8
:100EE0008000806280938000D0938B00C0938A0042
:100EF00015C08091B00080688093B000C093B300AB
:100F00000DC08091B00080628093B000C093B400A7
:100F100005C0C038D1050CF0B3CFADCFDF91CF9174
:100F20001F910895CF92DF92EF92FF920F931F933C
:100F3000CF93DF936C01EB017A01E60EF71E00E020
:100F400010E00BC06991D601ED91FC910190F08108
:100F5000E02DC6010995080F191FCE15DF0591F781
:100F6000C801DF91CF911F910F91FF90EF90DF901B
:100F7000CF900895FC0184859585FC01E05CFF4FCE
:100F800020813181FC01EE5BFF4F80819181281B24
:100F9000390B2F733327C9010895FC01848595858A
:100FA000FC01E05CFF4F40815181FC01EE5BFF4F93
:100FB000208131814217530741F00190F081E02DEB
:100FC000E80FF91F208130E002C02FEF3FEFC90189
:100FD0000895FC0184859585FC01E05CFF4F40810C
:100FE0005181FC01EE5BFF4F208131814217530795
:100FF00081F0A081B181A80FB91F8C91208131812E
:101000002F5F3F4F2F73332731832083282F30E00A
:1010100002C02FEF3FEFC9010895FC018685978537
:10102000FC01E05CFF4FDC01AE5BBF4F40815181B2
:101030002D913C91119742175307C1F70895CF9313
:10104000DF93FC0186859785DC01A05CBF4F2D9165
:101050003C9111972F5F3F4F2F733327EC01CE5BED
:10106000DF4F4881598124173507D9F30D90BC9182
:10107000A02DA80FB91F6C93A685B785A05CBF4FA4
:1010800011963C932E93A689B7892C9181E090E02C
:10109000058C02C0880F991F0A94E2F7282B2C9325
:1010A00081E090E0DF91CF91089508951F920F9213
:1010B0000FB60F9211242F933F934F938F939F93CB
:1010C000EF93FF934091C6008091C6029091C702B2
:1010D00001968F7399272091C8023091C902821717
:1010E000930759F0E091C602F091C702EA57FD4F0D
:1010F00040839093C7028093C602FF91EF919F9126
:101100008F914F913F912F910F900FBE0F901F9095
:10111000189583E292E00E94BA07892B11F00C9493
:10112000550808951F920F920FB60F9211242F9316
:101130003F938F939F93EF93FF932091820230917F
:10114000830280918402909185022817390731F437
:101150008091C1008F7D8093C10014C0E091840212
:10116000F0918502EE5BFD4F208180918402909189
:10117000850201968F73992790938502809384024C
:101180002093C600FF91EF919F918F913F912F91F6
:101190000F900FBE0F901F901895CF92DF92EF9295
:1011A000FF92CF93DF93EC016A017B01411581EE41
:1011B000580761057105F9F0EC89FD8981E090E03F
:1011C0000E8C02C0880F991F0A94E2F7808360E0BA
:1011D00079E08DE390E0A70196010E940D0A21506D
:1011E000310941095109569547953795279521159C
:1011F00080E1380798F0EC89FD89108260E874E896
:101200008EE190E0A70196010E940D0A215031095C
:10121000410951095695479537952795E889F989E8
:101220003083EA89FB892083EE89FF89408181E050
:1012300090E09C010A8C02C0220F331F0A94E2F74F
:10124000422B4083EE89FF8940819C010B8C02C0B8
:10125000220F331F0A94E2F7422B4083EE89FF8965
:1012600040819C010C8C02C0220F331F0A94E2F7CC
:10127000422B4083EE89FF8920810D8C02C0880FAC
:10128000991F0A94E2F7809582238083DF91CF91A2
:10129000FF90EF90DF90CF90089510922602109269
:1012A000250288EE93E0A0E0B0E0809327029093BF
:1012B0002802A0932902B0932A028BE191E0909337
:1012C00024028093230286E892E090933002809378
:1012D0002F0282E492E0909332028093310285ECF7
:1012E00090E0909334028093330284EC90E09093EA
:1012F00036028093350280EC90E090933802809320
:10130000370281EC90E090933A028093390286ECA8
:1013100090E090933C0280933B0284E080933D02F6
:1013200083E080933E0287E080933F0285E08093D4
:10133000400281E08093410208950E94F6060E94D7
:10134000B900C9E8D8E00E94F0002097E1F30E94BC
:101350008908F9CF4F925F926F927F92AF92BF92BE
:10136000CF92DF92EF92FF920F931F93CF93DF9371
:10137000CDB7DEB729013A01621B730B840B950BC5
:1013800029893A894B895C892A193B094C095D09ED
:10139000298B3A8B4B8B5C8B9B01AC0169897A89D9
:1013A0008B899C890E94F109E418F5080609170940
:1013B000A80197010E942F0A2A0D3B1D4C1D5D1D9F
:1013C000B901CA01DF91CF911F910F91FF90EF906A
:1013D000DF90CF90BF90AF907F906F905F904F90D5
:1013E0000895DB018F939F930E944B0ABF91AF91A9
:1013F000A29F800D911DA39F900DB29F900D11246F
:101400000895991B79E004C0991F961708F0961B60
:10141000881F7A95C9F780950895A1E21A2EAA1B14
:10142000BB1BFD010DC0AA1FBB1FEE1FFF1FA21794
:10143000B307E407F50720F0A21BB30BE40BF50B91
:10144000661F771F881F991F1A9469F7609570951A
:10145000809590959B01AC01BD01CF010895052EAB
:1014600097FB16F4009407D057FD0DD00E940D0A8B
:1014700007FC09D07EF490958095709561957F4F1B
:101480008F4F9F4F089550954095309521953F4F30
:101490004F4F5F4F08950E945C0AA59F900DB49F27
:1014A000900DA49F800D911D11240895EE0FFF1F34
:1014B0000590F491E02D0994A29FB001B39FC00163
:1014C000A39F01D0B29F700D811D1124911D08951D
:0414D000F894FFCFBE
:1014D4005A00010300050000000000A8037A031D60
:1014E4000326033A034A03000000001F089207BAC8
:0814F40007E907CD070D080010
:00000001FF
